:020000040800F2
:10000000080C002099020008A91900081918000816
:10001000A119000891040008F9260008000000005A
:10002000000000000000000000000000B9190008F6
:100030009904000800000000B1190008C119000867
:10004000B3020008B3020008B3020008B3020008BC
:10005000B3020008B3020008B3020008B3020008AC
:10006000B3020008B3020008B3020008B30200089C
:10007000B3020008B3020008B3020008B30200088C
:10008000B3020008B3020008B3020008B30200087C
:10009000B3020008B3020008B3020008B30200086C
:1000A000B3020008B3020008B3020008B30200085C
:1000B000B3020008B3020008B3020008B30200084C
:1000C000B3020008B3020008B3020008B30200083C
:1000D000B3020008B3020008B3020008B30200082C
:1000E000B3020008B3020008B3020008B30200081C
:1000F000B3020008B3020008B3020008B30200080C
:10010000B3020008B3020008B3020008B3020008FB
:10011000B3020008B3020008B3020008B3020008EB
:10012000B3020008B3020008B3020008B3020008DB
:10013000B3020008B3020008B3020008B3020008CB
:10014000B3020008B3020008B3020008B3020008BB
:10015000B3020008B3020008B3020008B3020008AB
:10016000B3020008B3020008B3020008B30200089B
:10017000B3020008B3020008B30200080000000048
:10018000B3020008B3020008B3020008B30200087B
:10019000B3020008B3020008B3020008B30200086B
:1001A000B3020008B3020008B3020008B30200085B
:1001B000B3020008B3020008B3020008B30200084B
:1001C000B3020008B302000800000000B3020008F8
:1001D000B3020008B3020008B3020008B30200082B
:1001E000B3020008B3020008B3020008B30200081B
:1001F000B3020008B302000800F002F800F03CF877
:100200000AA090E8000C82448344AAF10107DA4571
:1002100001D100F031F8AFF2090EBAE80F0013F087
:10022000010F18BFFB1A43F00103184764250000B3
:1002300084250000103A24BF78C878C1FAD8520744
:1002400024BF30C830C144BF04680C607047000050
:100250000023002400250026103A28BF78C1FBD8CF
:10026000520728BF30C148BF0B6070471FB502F06E
:1002700066FA1FBD10B510BD00F0D0F81146FFF7AB
:10028000F5FF02F03DFA00F0EEF803B4FFF7F2FFDD
:1002900003BC00F0F5F80000094880470948004712
:1002A000FEE7FEE7FEE7FEE7FEE7FEE7FEE7FEE726
:1002B000FEE7FEE704480549054A064B7047000083
:1002C000911A0008F901000808060020080C002017
:1002D000080800200808002053EA020C00F069809A
:1002E0002DE9F04B4FF00006002B1FBFB3FA83F54A
:1002F00003FA05F424FA05F65E4012BF1643B2FA7B
:1003000082F502FA05F4C5F120051EBF22FA05FCAC
:1003100044EA0C04203556EA044C4FEA144418BF52
:10032000641C4FF000084FF00009904271EB030C81
:1003300039D3002919BFB1FA81F701FA07F6B0FAEB
:1003400080F700FA07F6C7F120071EBF20FA07FC66
:1003500046EA0C062037B6FBF4FCA7EB0507103F76
:1003600007F01F0BCBF120062CFA06F60CFA0BFB5C
:1003700044BFB3460026202FA4BF5E464FF0000BBB
:100380005BEA060C08BF4FF0010B19EB0B0948EBB9
:100390000608ABFB027C06FB02CC0BFB03CCC01BAC
:1003A00071EB0C01C1E70B46024641464846BDE8E9
:1003B000F08B13B5084318BF4FF0FF300146AFF381
:1003C0000080BDE81C4070474FF0000200B51346A6
:1003D00094469646203922BFA0E80C50A0E80C5065
:1003E000B1F12001BFF4F7AF090728BFA0E80C5016
:1003F00048BF0CC05DF804EB890028BF40F8042B0F
:1004000008BF704748BF20F8022B11F0804F18BF7B
:1004100000F8012B7047704770477047754600F031
:100420002BF8AE4605006946534620F00700854686
:1004300018B020B5FFF73EFFBDE820404FF00006A2
:100440004FF000074FF000084FF0000BAC46ACE84F
:10045000C009ACE8C009ACE8C009ACE8C00921F0AB
:1004600007018D46704710B50446AFF30080204663
:10047000BDE81040FFF709BF00487047100000209A
:1004800001491820ABBEFEE72600020070470000BD
:10049000FEE70000000000007047000000000000C0
:1004A000EFF3108072B600BFFEE70000000000000E
:1004B000B0B5044600F0F4F840F200010546C2F27F
:1004C0000001621C097818BF0C4400BF00F0E8F876
:1004D000401BA042FAD3B0BD2DE9F04F82B000F12D
:1004E0003E420A2302F1FF7742F20042C4F20202C6
:1004F00043F6004B90424FEAB72208BF0923092A6E
:10050000C4F2010B38BF4FEAB72300244FF0010EAD
:1005100000270026009306E001360437102E04F170
:10052000020400F0A9800EFA06F80B6813EA080F1F
:10053000F2D0D1F804A003220AF0030C02FA04F569
:10054000ACF101036FEA0509012B0FD88368CD6870
:1005500003EA0903A5402B438360CAF300154368EF
:1005600023EA0803B5402B43436005E0BCF1030FC9
:1005700002D14FF0030C22E0C3688D6803EA09033F
:10058000A540BCF1020F43EA0503C36017D16FF029
:1005900003020F2502EA560307F01C02034405FA82
:1005A00002FAD3F820C00D692CEA0A0C05FA02F20F
:1005B00042EA0C021A62D1F804A00AF0030C0268A5
:1005C0000CFA04F302EA09021AF4403F42EA030279
:1005D0000260A1D043F644034FF60849C4F2020377
:1005E000CFF6FF790F251A6842F480421A601A6824
:1005F00026F0030302F4804201920BEB0302019BFD
:1006000007F00C0352F809C09D402CEA050C009D30
:1006100005FA03F343EA0C0342F80930DBF808C09B
:100620004B684CEA0805DA0258BF2CEA080543F685
:100630000C499A02C4F20109CBF80850D9F800C05D
:100640004CEA080558BF2CEA08059A03C9F800507F
:10065000DBF804C04CEA080558BF2CEA0805DB03A8
:10066000CBF80450DBF8002042EA080558BF22EA24
:100670000805CBF800504FE702B0BDE8F08F00004E
:10068000426902EA0103914341EA034181617047F3
:10069000002A08BF090481617047000000000000C3
:1006A00040F20060C2F200000068704700000000E5
:1006B00040F2000040F20061C2F20000C2F200010C
:1006C00000780A68104408607047000000000000CD
:1006D00080B5032000F078F8002000F005F800F065
:1006E00027F8002080BD000070B540F2000640F2FF
:1006F0000801C2F20006C2F200014FF47A73044608
:1007000032780968B3FBF2F2B1FBF2F1084600F06F
:10071000C3FF0F2C4FF0010508D838B94FF0FF3058
:1007200000222146002500F01FF87460284670BDA5
:1007300082B043F64000C4F20200016841F08051EB
:100740000160016801F0805101910199416841F413
:1007500080414160406800F480400090009802B001
:10076000704700000000000070B54EF60C5C4FF0C2
:10077000FF36CEF2000C00F1604505F56445DCF86B
:100780000030C3F3022E8EF00703042B28BF04238E
:10079000BEF1030406FA03F321EA030100F00F039C
:1007A00038BF0024043B0028634406FA04F048BF25
:1007B00003F10C05A14022EA000008430001287063
:1007C00070BD0000000000004EF60C514FF6FF0314
:1007D000CEF200010A681A4060F30A2242F08060FB
:1007E00040F0FD700860704701680122C0F80025E4
:1007F000002280F8F424886940F000608861486D28
:1008000040F08052002042F003024A657047000029
:100810002DE9F04F8BB0002800F085800446056874
:1008200090F8BD0428B9002084F8BC04204600F0EC
:1008300093F8032084F8BD04E86BC00501D40020C0
:100840002061206801F01CFF20680A9004F1040E6A
:1008500004F11C0AD4E90C509EE80E589AE8C0072F
:10086000CDE9085003A88DE8005880E8C0070A9831
:1008700001F0BAFB002853D120680021002501F0C7
:1008800007FF616871B301200023002203EBC3035B
:1008900004EB8307D3B287F83C200132A7F8443039
:1008A000D3B287F83D00994287F84050BD64FD649B
:1008B0007D65EBD800200023002200BF03EBC303BB
:1008C00004EB830787F87C220132D3B287F87D02DC
:1008D000994287F88002C7F88802C7F88C02C7F8E7
:1008E0009402EBD804F1140E04F1240A2268A068E3
:1008F0000A90D4E903379EE840589AE80007D4E903
:100900000C50CDE9085002A8CDE9007680E80058E7
:1009100005A880E8000710460A9A01F065FC38B186
:10092000022084F8BD0401200BB0BDE8F08F00BFA9
:10093000002084F83800012084F8BD04606A012892
:1009400002D12046FFF750FF206801F03DFC002057
:100950000BB0BDE8F08F0000F0B5ABB002A90446C3
:10096000081D8C21FFF730FD2068B0F1A04F01D0A9
:100970002BB0F0BD4FF40010029002A800F088F8F0
:1009800008B1FFF78DFD43F630060024C4F20206DD
:10099000C4F2020426AD00273068294640F0010069
:1009A0003060306800F00100269026984FF4E8503F
:1009B000269002202790032029900A202A90204682
:1009C0002897FFF789FD4FF400702946CDE92607E7
:1009D00020462897FFF780FD706840F08000706027
:1009E000706800F0800001900198706940F48040C8
:1009F0007061706900F48040009000982BB0F0BDE9
:100A0000B0B582B043F6400047F20005C4F20200E0
:100A1000C4F20005016841F080510160006800F0F7
:100A2000805001900198286840F480302860FFF7DA
:100A300037FE04466868C00306D4FFF731FE001B8A
:100A4000B0F57A7FF6D910E0286840F400302860CD
:100A5000FFF726FE044600BF6868800308D4FFF74E
:100A60001FFE001BB0F57A7FF6D9032002B0B0BD9F
:100A7000002002B0B0BD000047F20000C4F2000048
:100A8000016841F4807101607047000000000000BF
:100A90002DE9F04782B0D0F800A043F69006044656
:100AA0005FEACA70C4F202061AD14FF000095FEA89
:100AB0000A3028D556F8040CE16B20F44010B1F54B
:100AC000801F40EA010046F8040CB1FA81F04FEAB9
:100AD000501808BF4FF001095FEACA2018D429E076
:100AE00056F8880C20F4000046F8880C606B56F825
:100AF000881C014346F8881CB0FA80F04FEA501970
:100B00005FEA0A30D6D44FF000085FEACA2011D558
:100B100056F8040C216C20F44000B1F5800F40EA37
:100B2000010008BF4FF00109002908BF4FF001087C
:100B300046F8040C5FEA8A6057465CD556F8500CBC
:100B400047F2000740F0805046F8500CC4F200070E
:100B500056F8500C00F0805001900198386840F42D
:100B600080703860FFF79CFD054600BF3868C005FF
:100B700006D4FFF795FD401B6428F7D958E200BF63
:100B800056F8200C10F440701BD0216B01F440711A
:100B9000884216D056F8200C56F8201C41F48031BB
:100BA00046F8201C56F8201C20F4407021F48031B7
:100BB00046F8201C46F8200C56F8200CC00740F0E0
:100BC0003B824FF6FF432768206B56F8882CC0F60F
:100BD000FF7300F4407122F4F81203406FF31F30EA
:100BE000B1F5407F08BF1A4346F8882C56F8201C00
:100BF000084346F8200CF80638D4780444D4380466
:100C00004AD4F80350D4B80356D478065CD43806D6
:100C100062D4F80568D4B8056ED4780575D4380563
:100C20007CD4F80400F18380B80400F18980780254
:100C300000F18F80B80200F19580780300F1A18067
:100C4000380200F1A780780100F1AE80380100F190
:100C5000B580F8000AF0807000F1BE80002808BF5F
:100C6000B9F1000F40F0E480C4E000BF56F8040C76
:100C700020F0807046F8040CA06B56F8041C084362
:100C800046F8040C7804BAD53068616E20F4403020
:100C9000084330603804B4D53068A16E20F4402099
:100CA00008433060F803AED53068E16E20F44010A0
:100CB00008433060B803A8D53068216F20F44000A5
:100CC000084330607806A2D53068616C20F00300DC
:100CD0000843306038069CD53068A16C20F00C00C9
:100CE00008433060F80596D53068E16C20F030009C
:100CF00008433060B80590D53068216D20F0C00001
:100D00000843306078057FF58AAF3068616D20F464
:100D100040700843306038057FF583AF3068A16DBF
:100D200020F4406008433060F8047FF57DAF306800
:100D3000E16D20F4405008433060B8047FF577AF90
:100D40003068216E20F440400843306078027FF51F
:100D500071AF3068A16F20F0806008433060B80246
:100D60007FF56BAF3068E16F20F00060B1F1006F8C
:100D700040EA010008BF4FF00108306078037FF5BA
:100D80005FAF3068616F20F0407008433060380218
:100D90007FF559AF3068D4F8801020F080500843B8
:100DA000306078017FF552AF3068D4F8841020F0BD
:100DB00000500843306038017FF54BAF56F8040C03
:100DC000D4F8881020F00070084346F8040CF800AE
:100DD0000AF080707FF542AF56F8041CD4F88C20DE
:100DE00021F08061114346F8041C002808BFB9F1C6
:100DF000000F1DD117F000701AD117F0080008BFBE
:100E0000B8F1000F00F0A68056F8900C20F080504A
:100E100046F8900CFFF744FC054600BF56F8900CCE
:100E2000800029D5FFF73CFC401B6428F6D9FFE081
:100E300056F8900C20F0806046F8900CFFF730FCDC
:100E4000054600BF56F8900C000105D5FFF728FCB9
:100E5000401B6428F6D9EBE02068C10702D0616B23
:100E600000297BD0010340F18D80E16BB1F5801F3B
:100E700040F088808CE000BF2068010301D5E16B61
:100E800019B1C1021ED5216CE1B956F8081C56F8FB
:100E9000082C01F4403102F0E04263691144A26978
:100EA00041EA8311A76A41EA026146F8081C56F834
:100EB000041C6FF0FF0221F4F85102EB07221143EA
:100EC00046F8041C810214D5E16FB1F1006F10D116
:100ED00056F8081C56F8082C01F0706102F0E04248
:100EE0006369276A114441EA831141EA074146F8E0
:100EF000081C000718D556F8080C56F8081C00F016
:100F0000706001F4403162690844E16940EA82108E
:100F1000E36A40EA017046F8080C56F8040C20F425
:100F20004030184346F8040C56F8900C40F08050BE
:100F300046F8900CFFF7B4FB044600BF56F8900C3F
:100F4000800007D4FFF7ACFB001B6528F6D3032015
:100F500084E000BF002002B0BDE8F08756F80C1C0A
:100F600056F80C2C01F4403102F07062D4E90135DE
:100F7000114441EA831141EA057146F80C1C010352
:100F80003FF573AFC1021DD5216CB1F5800F19D1AA
:100F900056F80C1C56F80C2C01F4403102F0E042DB
:100FA00063681144E26841EA8311656A41EA0261BB
:100FB00046F80C1C56F8041C6A1E21F01F01114350
:100FC00046F8041CC10110D556F80C1C56F80C2C20
:100FD00001F0706102F0E04263682569114441EA62
:100FE000831141EA054146F80C1C80010CD560686C
:100FF000A368D4E90321090441EA801040EA0260B1
:1010000040EA037046F80C0C56F8900C40F08060F3
:1010100046F8900CFFF744FB054600BF56F8900CCD
:1010200000013FF5EAAEFFF73BFB401B6428F5D912
:10103000032002B0BDE8F087FFF732FB054641F21E
:10104000883700BF56F8200C80073FF5BAADFFF790
:1010500027FB401BB8424FF00300F3D902B0BDE8B4
:10106000F0870000000000002DE9F041002800F0AA
:10107000898043F608080446C4F202080D46D8F8F1
:10108000F80300F00F0088420CD2D8F8F80320F0E3
:101090000F002843C8F8F803D8F8F80300F00F0051
:1010A000A8426FD12068810717D5410705D5D8F828
:1010B000001041F4E051C8F80010010705D5D8F838
:1010C000001041F46041C8F80010D8F80010A26880
:1010D00021F0F0011143C8F80010C0073AD1D8F848
:1010E000F80300F00F00A8420CD9D8F8F80320F05C
:1010F0000F002843C8F8F803D8F8F80300F00F00F1
:10110000A8423FD12068410707D5D8F80010E2680F
:1011100021F4E0511143C8F80010000708D5D8F8B1
:101120000000216920F4604040EAC100C8F80000D6
:10113000D8F8000000F00C0142F200400829C0F28B
:10114000F4003FD004295FD141F20020C0F27A00C0
:101150005AE000BF6068022808D001280ED158F874
:10116000081C890312D40120BDE8F08158F8081C3E
:1011700089010BD40120BDE8F08100BF58F8081C9C
:10118000890703D40120BDE8F08100BFD8F8001022
:1011900021F003010843C8F80000FFF781FA064672
:1011A00041F28837D8F80000616800F00C00B0EB1D
:1011B000810F94D0FFF774FA801BB842F2D9032054
:1011C000BDE8F08158F8041C58F8043C58F8047C39
:1011D00001F03F025902C7F3881105D4A1FB0001B9
:1011E0000023FFF779F806E041F20020C0F27A0010
:1011F0004843B0FBF2F058F8041C0222C1F301414D
:1012000002EB4101B0FBF1F0D8F8001042F2587245
:10121000C0F60002C1F30311515C40F20402C2F2B5
:101220000002C84040F20801C2F2000108601068E4
:10123000FFF75AFA0020BDE8F0810000000000002E
:1012400040F2080043F60801C2F20000C4F20201B5
:1012500042F2687200680968C0F60002C1F3822198
:10126000515CC8407047000040F2080043F6080196
:10127000C2F20000C4F2020142F26872006809681A
:10128000C0F60002C1F34231515CC8407047000013
:1012900010B543F60404C4F20204606800F00C01C7
:1012A00042F200400829C0F2F40007D0042918BF18
:1012B00010BD41F20020C0F27A0010BD2268236800
:1012C000216802F03F025B02C1F3881106D4A1FB42
:1012D00000010023FFF700F807E000BF41F2002003
:1012E000C0F27A004843B0FBF2F021680222C1F359
:1012F000014102EB4101B0FBF1F010BD0000000024
:101300002DE9F04182B000286ED00446007843F603
:101310000006C007C4F202060BD0B06800F00C0053
:10132000042840F09F803068800302D56068002860
:101330005AD0207880071AD5B06810F00C0F09D069
:10134000B06800F00C00082840F0AA8070684002E5
:1013500000F1A6803068800702D5E068012843D1FB
:101360003068216920F0F80040EAC1003060207840
:1013700000073DD4207840074ED4A56985B3B068F6
:1013800000F00C00082840F0BF80012D70682BD0C1
:1013900000F48001E269914226D100F03F01226A07
:1013A000914221D147F6C071626A0140B1EB821FC0
:1013B0001AD1A16A4FF6FF72C903914300F440327B
:1013C000A1F580318A420FD1E16A00F07062B2EB80
:1013D000016F09D1216B00F0E040B0EB017F03D138
:1013E000002002B0BDE8F081012002B0BDE8F0812C
:1013F00060690028706F77D040F001007067FFF7D8
:101400004FF90546706F8007B4D4FFF749F9401BC8
:101410000228F7D915E100BF306C10F0805808D1D0
:10142000306C40F080503064306C00F0805001909F
:10143000019847F20007C4F200073868C00543D49A
:10144000386840F480703860FFF72AF9054600BF1D
:101450003868C00538D4FFF723F9401B6428F7D952
:10146000EFE000BFB06800F00C00082803D17068FE
:1014700040023FF558AF6068002800F0B580B0F535
:10148000A02F00F0C980B0F5803F00F0C98030681F
:1014900020F480303060306820F48020C3E000BF4A
:1014A000E0680028306851D040F001003060FFF75C
:1014B000F7F80546306880073FF552AFFFF7F0F8C0
:1014C000401B0228F6D9BCE0A068002850D00528AF
:1014D00068D001286AD0306F20F001003067306F8B
:1014E00020F0040065E000BF20F001007067FFF706
:1014F000D7F80546706F80077FF53CAFFFF7D0F84F
:10150000401B0228F6D99CE0306820F080703060E3
:10151000FFF7C6F8022D05460CD100BF30688001E8
:1015200040F19480FFF7BCF8401B02284FF0030005
:10153000F4D956E7306880017FF552AFFFF7B0F875
:10154000401B02284FF00300F4D94AE720F00100C5
:101550003060FFF7A5F80546306880077FF507AFD4
:10156000FFF79EF8401B02284FF00300F4D938E73C
:10157000306F20F001003067306F20F004003067DA
:10158000FFF78EF8054641F2883700BF306F8007BD
:1015900020D5FFF785F8401BB8424FF00300F5D97E
:1015A0001FE700BF306F40F004003067306F40F03D
:1015B00001003067FFF774F8054641F2883700BF35
:1015C000306F800706D4FFF76BF8401BB842F7D99D
:1015D00037E000BFB8F1000F7FF4CFAE306C20F0E1
:1015E00080503064C9E600BF306820F4803030603D
:1015F000306820F480203060FFF752F8054600BFC5
:10160000306880037FF595AEFFF74AF8401B6428E9
:101610004FF00300F4D9E4E6306840F480203060F5
:10162000306840F480303060FFF73AF8054600BF7C
:10163000306880033FF57DAEFFF732F8401B642829
:10164000F6D9032002B0BDE8F08100BF04F11C0709
:10165000256B8FCF0843D9034FF6FF7340EA821002
:10166000994340EA0760A1F58031084340EA0570DC
:101670007060306840F080703060FFF711F8044609
:10168000306880013FF5ACAEFFF70AF8001B022876
:101690004FF00300F4D9A4E6411E0020B0EB116F17
:1016A00002D00120704700BF4EF21002F023CEF2AC
:1016B000000251604EF62351CEF200010B7007215B
:1016C0009060116070470000B0B582B0A0B10446D0
:1016D000C06F28B9002084F87800204600F058F840
:1016E0002420E0672068016821F0010101602046A4
:1016F00000F04AFA012803D1012002B0B0BD00BFBA
:10170000606A10B1204600F0CFF92068416821F4EA
:1017100090414160816821F02A018160016841F0B7
:10172000010101600020C4F88400FEF7B9FF2168C0
:1017300005460A6812070BD54FF4001100226FF01E
:101740007E40009020462B4600F03EFB70B9216899
:10175000086840070ED54FF4800100226FF07E40EC
:10176000009020462B4600F02FFB18B1032002B05A
:10177000B0BD00BF2020E067C4F8800000202066D4
:10178000606684F8780002B0B0BD00000000000080
:10179000B0B5AAB0044601A844F6000504308C2177
:1017A000C4F20005FEF710FE2068A84202D02AB05D
:1017B000B0BD00BF4FF48070019001A8FFF768F939
:1017C00008B1FEF76DFE43F63000C4F20200016975
:1017D00041F480210161016901F48021259125995D
:1017E000016841F008010160006825A900F00800C7
:1017F000259025984FF440702590022026900020D7
:101800002790032028900720299005F5E230FEF765
:1018100063FE2AB0B0BD0000FEE70000000000003B
:101820002DE9F04786B043F630000027C4F20200ED
:1018300041F6000ACDE904770168C4F2020A41F0DA
:10184000040101600168AAF5A05501F004010091AE
:101850000099016841F0800101600168002201F0F7
:10186000800100910099016841F002010160016866
:1018700044F2810801F0020100910099016841F0F1
:1018800008010160016801F00801009100990168F8
:1018900041F040010160016801F0400100910099B0
:1018A000016841F001010160006844F2810100F02B
:1018B0000100009000982846FEF7EAFE4021002231
:1018C00050464FF04009FEF7E3FE01AE4FF40050E2
:1018D00001904FF48810CDE90207AAF580503146F7
:1018E000FEF7FAFD28463146CDF804800124CDE903
:1018F00002470497FEF7F0FD50463146CDE90194CA
:10190000CDE90377FEF7E8FD80203146CDE90107F8
:1019100050460397FEF7E0FD06B0BDE8F0870000F3
:1019200080B540F2785044F60001C2F20000C4F2E3
:1019300000010C2201604FF4E13141600021C0E957
:1019400002110161C0E90521C0E907114162FFF7F9
:10195000BBFE002808BF80BDBDE88040FEF7A0BDEB
:1019600080B540F270004FF0A041C2F200000022AA
:101970000160062141600221C16002618161012193
:10198000C0E907124262C0E90B12FEF741FF0028CE
:1019900008BF80BDBDE88040FEF782BD00000000AA
:1019A000FEE7000000000000FEE70000000000006D
:1019B00070470000000000007047000000000000B9
:1019C000FEF776BE0000000080B594B000200690BF
:1019D000CDE90B00CDE90900CDE90400CDE9020015
:1019E000FFF74AF843F64000C4F20200016841F0F4
:1019F00080510160006800F08050019047F20000C3
:101A00000199C4F20000016841F44041016000689E
:101A10004FF4800100F440400190019801200790AC
:101A20004FF4A020089002200D900E9104210F91F8
:101A3000D821CDE910100921CDE9121007A8FFF730
:101A40005FFC28B1EFF3108072B600BFFEE700BF65
:101A5000FEF7D6FF20B1EFF3108072B6FEE700BFAD
:101A60000F20029002200390002004904FF4A05019
:101A700005904FF48050069002A80721FFF7F4FA72
:101A800020B1EFF3108072B6FEE700BF14B080BD46
:101A90004EF68850CEF20000016841F470010160FA
:101AA0007047000000000000416ACA070CD18A0795
:101AB00015D44A071ED40A0727D4CA0630D48A068A
:101AC00039D44A0655D541E00268D0F828C0536899
:101AD00023F4003343EA0C0353608A07E9D5026814
:101AE000D0F82CC0536823F4803343EA0C035360CE
:101AF0004A07E0D50268D0F830C0536823F4802349
:101B000043EA0C0353600A07D7D50268D0F834C003
:101B1000536823F4004343EA0C035360CA06CED54E
:101B20000268D0F838C0936823F4805343EA0C036A
:101B300093608A06C5D50268D0F83CC0936823F448
:101B4000005343EA0C0393604A0612D50268D0F8AA
:101B500040C05368BCF5801F23F4801343EA0C0394
:101B6000536006D1536823F4C00C436C43EA0C0362
:101B70005360090658BF70470168806C4A6822F4B8
:101B8000002210434860704770B5064601688068BF
:101B900046F6F315D6E9033202437069D6F81CC045
:101BA0000C68CEF6FF75104304EA0502104340EAC4
:101BB0000C000860486820F4405018434860B06941
:101BC00047F2FF73326AC4F2000310438A6822F4BA
:101BD0003062994240EA02004FF01002886019DC3E
:101BE00044F6FF30C4F2000081422DDC44F2004094
:101BF000C4F2000081424DD044F60000C4F200005F
:101C0000814271D143F69000C4F2020000680109DC
:101C100056E000BF40F6FF70C4F20100814227DCAD
:101C200047F60000C4F2000081423BD047F6004076
:101C3000C4F20000814257D143F69000C4F2020082
:101C40000068810B3CE000BF44F60040C4F2000095
:101C500081422FD045F20000C4F20000814243D1FE
:101C600043F69000C4F202000068010A28E000BFB9
:101C700041F20040C4F20100814227D041F200004D
:101C8000C4F2010081422FD143F69000C4F2020059
:101C9000016821E043F69000C4F202000068810868
:101CA0000EE000BF43F69000C4F202000068010B92
:101CB00006E000BF43F69000C4F20200006881090C
:101CC00042F28072C0F600020AE000BF43F69000C4
:101CD000C4F202000068810A42F27072C0F600028B
:101CE00001F0030052F8202042F20040BCF5004F02
:101CF000C0F2F4000ED1082A4FF0010122D8DFE82B
:101D000002F0051929211D2121212700FFF798FA4A
:101D100000BB16E0082A4FF0010113D8DFE802F0FB
:101D2000062E381232121212360000BFFFF788FA60
:101D300070BB3AE0FFF798FA60B902E0FFF7A8FA43
:101D400040B900210020C6E91A00084670BD00BF56
:101D50004FF4004071684A0802EB40004FF6EF7202
:101D6000B0FBF1F0A0F11001914225D84FF6F071CF
:101D70000140C0F34200084415E000BFFFF774FAC9
:101D800030B912E0FFF784FA10B90EE04FF40040CA
:101D900071684FF6EF7200EB5100B0FBF1F0A0F16B
:101DA0001001914208D83168C86000210020C6E9BE
:101DB0001A00084670BD00BF01210020C6E91A00C4
:101DC000084670BD000000002DE9F041044600689F
:101DD0000D46C7693940491BB1FA81F14909914261
:101DE00040F0A580DDF81880B8F1000F2AD0164623
:101DF00018F1010140F08480C1692940491BB1FA02
:101E000081F14909B14240F09280C1692940491BE2
:101E1000B1FA81F14909B14201BFC1692940491BA9
:101E2000B1FA81F104BF4909B14240F08080C16933
:101E30002940491BB1FA81F14909B142DCD00020A7
:101E4000BDE8F081FEF72CFC206850E8000F216807
:101E500020F4D07041E80002F2B1206850E8000F91
:101E6000216820F4D07041E80002002A1FBF2068DA
:101E700050E8000F216820F4D0701CBF41E8000238
:101E8000002A09D0206850E8000F216820F4D070A3
:101E900041E80002002AD7D1206850E8020F2168EB
:101EA00020F0010041E80202F2B1206850E8020F80
:101EB000216820F0010041E80202002A1FBF2068CB
:101EC00050E8020F216820F001001CBF41E8020227
:101ED000002A09D0206850E8020F216820F0010094
:101EE00041E80202002AD7D12020E06704F18000F7
:101EF00020210160002084F878000320BDE8F081F3
:101F00001F4600BFFEF7CCFBC01B40459CD8206895
:101F10000168490744BFC1695FEA01510AD4C06939
:101F20002840401BB0FA80F04009B042EAD00020BF
:101F3000BDE8F0814FF400610162206850E8000FB5
:101F4000216820F4D07041E80002F2B1206850E826
:101F5000000F216820F4D07041E80002002A1FBF62
:101F6000206850E8000F216820F4D0701CBF41E8C1
:101F70000002002A09D0206850E8000F216820F4F0
:101F8000D07041E80002002AD7D1206850E8020F43
:101F9000216820F0010041E80202F2B1206850E817
:101FA000020F216820F0010041E80202002A1FBF51
:101FB000206850E8020F216820F001001CBF41E8B2
:101FC0000202002A09D0206850E8020F216820F0A0
:101FD000010041E80202002AD7D12020E067C4F8BE
:101FE000800004F1840083E780B582B0069901295E
:101FF00040F64051DDF810C0C0F2030172D1826B8F
:102000004FF6BF7322F480328263C268CFF6BD738D
:10201000DDF834E01A40C260BEF1010FC26822F45C
:102020004012C26003D1C26842F48012C260002232
:102030000092009A01320092009A8A4200F2AA802D
:102040000269002A1ED4009A01320092009A8A4244
:1020500000F2A0800269002A14D4009A0132009292
:10206000009A8A4200F296800269002A0AD4009AF5
:1020700001320092009A8A4200F28C800269B2F129
:10208000FF3FD6DC00220092026942F001020261A9
:10209000009A01320092009A8A427BD80269D207E4
:1020A0001AD0009A01320092009A8A4272D80269CC
:1020B000D20711D0009A01320092009A8A4269D860
:1020C0000269D20708D0009A01320092009A8A422F
:1020D00060D80269D207DBD10021BCF1010F6FD1BA
:1020E00066E000BFC26842F04002C2600022019276
:1020F000019A01320192019A8A4251D80269002A5A
:102100001BD4019A01320192019A8A4248D802698D
:10211000002A12D4019A01320192019A8A423FD8D0
:102120000269002A09D4019A01320192019A8A4275
:1021300036D80269B2F1FF3FDADC0022019202696F
:1021400042F001020261019A01320192019A8A422F
:1021500026D80269D2071AD0019A01320192019A57
:102160008A421DD80269D20711D0019A0132019228
:10217000019A8A4214D80269D20708D0019A013222
:102180000192019A8A420BD80269D207DBD1002161
:1021900007E000BF0321BCF1010F11D108E000BF2F
:1021A0000321826B42F480328263BCF1010F07D1BC
:1021B000826842F006028260826842F020028260F9
:1021C000084602B080BD00000146D0F8000E20F0A5
:1021D0000300C1F8000E0020D1F8042842F00202EA
:1021E000C1F80428704700002DE9F04F83B0DDF8F6
:1021F0004C800E9FB8F1000F4FF00002C0F8042190
:10220000C0F80821C0F80C21C0F81021C0F8142132
:10221000C0F81821C0F81C21C0F82021C0F82421E2
:10222000C0F82821C0F82C21C0F83021C0F8342192
:10223000C0F83821C0F83C2106D0826B00F5006B55
:1022400042F40012826313E0D0F8042800F5006B1A
:1022500042F00202C0F80428826B22F4001282636A
:10226000026842F040020260066846F0800606609E
:102270000026C0F8006E012FD0F80078C0F8007872
:1022800006D1DBF80070002B18BF47F0010703E010
:10229000DBF8003043F0030740F64055DDF83CE042
:1022A000DDF83090C0F20305C0F8007800230193F8
:1022B000019B01330193019BAB4249D80369002B79
:1022C0001BD4019B01330193019BAB4240D80369AE
:1022D000002B12D4019B01330193019BAB4237D8F1
:1022E0000369002B09D4019B01330193019BAB428D
:1022F0002ED80369B3F1FF3FDADC002301934FF4DA
:1023000084630361019B01330193019BAB421FD89E
:1023100003699B061AD5019B01330193019BAB42D4
:1023200016D803699B0611D5019B01330193019BCC
:10233000AB420DD803699B0608D5019B013301937D
:10234000019BAB4204D803699B06DBD4002400E068
:10235000012400230293029B01330293029BAB42B0
:1023600048D80369002B1BD4029B01330293029BC4
:10237000AB423FD80369002B12D4029B0133029376
:10238000029BAB4236D80369002B09D4029B013370
:102390000293029BAB422DD80369B3F1FF3FDADC15
:1023A0000023029310230361029B01330293029BDB
:1023B000AB421FD80369DB061DD5029B0133029394
:1023C000029BAB4216D80369DB0614D5029B01338E
:1023D0000293029BAB420DD80369DB060BD5029B2F
:1023E00001330293029BAB4204D80369DB06DBD4C2
:1023F00001E000BF01244FF0000A0029CBF810A033
:10240000CBF814A0CBF81CA000F00981D0F800395B
:102410004FF000624E1E4FF67F3702EA1313C0F8EA
:102420000039C0F810A9C0F808797CD08B1E06F0DE
:102430000309032B7246009404D22024B9F1000F43
:102440003FD166E026F0030400234FF0904E4FF694
:102450007F384FF0000C00BF00EB0C05043C0CF182
:10246000800CD5F820790EEAE777C5F82079C5F811
:102470003039C5F82889D5F840790EEAE777C5F8EC
:102480004079C5F85039C5F84889D5F860790EEA21
:10249000E777C5F86079C5F87039C5F86889D5F867
:1024A00080790EEAE777C5F88079C5F89039C5F8E4
:1024B0008889D1D10CF12004DDF84C80B9F1000FEE
:1024C00027D000F510674FF0904C3B194FF0000EED
:1024D0003D59B9F1010F0CEAE5753D514FF67F34D6
:1024E000C3F810E09C6014D01D6AB9F1020F0CEA29
:1024F000E5771F62C3F830E09C620AD01F6C4FF092
:10250000904505EAE7771F6400271F654FF67F3780
:102510009F6400299646DDF830904FF00062009CE1
:102520004FF67F377BD0D0F8003B002E02EA131322
:10253000C0F8003B4FF00003C0F8103BC0F8087B28
:102540006DD0023906F0030C032905D22023BCF11B
:10255000000F3ED163E000BF009426F00304002387
:102560004FF090474FF67F36002100BF4518043CDE
:1025700001F18001D5F8202B07EAE272C5F8202B83
:10258000C5F8303BC5F8286BD5F8402B07EAE27256
:10259000C5F8402BC5F8503BC5F8486BD5F8602B03
:1025A00007EAE272C5F8602BC5F8703BC5F8686BA6
:1025B000D5F8802B07EAE272C5F8802BC5F8903B6E
:1025C000C5F8886BD2D101F12003009CBCF1000F4B
:1025D00025D000F530624FF09047D118BCF1010FC3
:1025E000D65807EAE676D6504FF000034FF67F360E
:1025F0000B618E6013D00A6ABCF1020F07EAE27227
:102600000A620B638E620AD00A6C4FF0904303EAB1
:10261000E2720A6400220A654FF67F328A64DBF8B0
:102620001010B9F1000F21F48071CBF81010C0F830
:1026300018A06FF08041416103D1816941F0100120
:10264000816143F600028169C8F23C02BEF1000FCD
:1026500041EA0201816103D0816941F00801816191
:10266000B8F1010F05D1816941F0804141F00401C9
:102670008161204603B0BDE8F08F0000000000003B
:1026800001468268002022F001028A607047000043
:10269000B0B50446C06820F0C040E06091B10129A7
:1026A00026D1E068002540F00050E0600120FDF7F1
:1026B000FFFE6069C00705F1010014D1312D054608
:1026C000F4D310E0E068002540F08040E06000BFF7
:1026D0000120FDF7EDFE6069C00705F1010002D0A1
:1026E000312D0546F4D33238B0FA80F04009B0BD40
:1026F0000120B0BD00000000FEE700000000000067
:1027000040F20044C4F20204FDF7E2FFFFF75CF977
:10271000FFF786F8FFF704F9FFF722F94FF480413D
:102720002046FDF7ADFF0220FDF7C2FE4FF48041C9
:102730002046FDF7A5FF0820FDF7BAFEEEE7F1EE13
:10274000100A4FF6FF71C0F2C03120EA010040F0DC
:102750004070E1EE100A7047000000000000000029
:102760000102030406070809000000000102030437
:10277000010000000400000002000000080000004A
:10278000000000000400000002000000080000003B
:10279000B0270008000000201000000034020008EC
:1027A000C027000810000020F80B000050020008AD
:1027B00001000000100000000024F40000000000F0
:04000005080001F9F5
:00000001FF
